:100000000C9446000C945D000C945D000C945D0013
:100010000C945D000C945D000C945D000C945D00EC
:100020000C945D000C945D000C945D000C945D00DC
:100030000C945D000C945D000C945D000C945D00CC
:100040000C945D000C945D000C945D000C945D00BC
:100050000C945D000C945D000C945D000C945D00AC
:100060000C945D000C945D000C945D000C945D009C
:100070000C945D000C945D000C945D000C945D008C
:100080000C945D000C945D000C945D0011241FBE67
:10009000CFEFD0E4DEBFCDBF11E0A0E0B1E0EAEBEE
:1000A000F1E000E00BBF02C007900D92AE30B10747
:1000B000D9F70E9470000C94DB000C940000CF93E1
:1000C000C82F8A3019F48DE00E945F008091C00033
:1000D00085FFFCCFC093C60080E090E0CF910895EB
:1000E00011B88FEF82B987B918B830B1832F90E07B
:1000F00080959095AC01437055274330510521F010
:1001000032FF04C020E603C027E001C027E0AC01B5
:10011000457055274530510539F0AC0146705527DB
:100120004630510521F402C028E301C028E3AC01A8
:10013000477055274730510549F033FF09C0AC01DE
:10014000497055274930510531F404C02CE303C0F0
:100150002CE301C02CE3AC014A7055274A3051050D
:1001600069F0AC014B7055274B30510549F0AC019B
:100170004C7055274C30510531F404C02EE303C0B8
:100180002EE301C02EE3AC014D7055274D305105D3
:1001900059F0AC014E7055274E30510539F08F7033
:1001A00099270F9731F404C02FE303C02FE301C058
:0A01B0002FE328B99ACFF894FFCF8F
:0E01BA0000000002000000005F0000000000D6
:00000001FF
