:100000000C9446000C9465000C9465000C946500FB
:100010000C9465000C9465000C9465000C946500CC
:100020000C9465000C9465000C9465000C946500BC
:100030000C9465000C9465000C9465000C946500AC
:100040000C9465000C9465000C9465000C9465009C
:100050000C9465000C9465000C9465000C9465008C
:100060000C9465000C9465000C9465000C9465007C
:100070000C9465000C9465000C9465000C9465006C
:100080000C9465000C9465000C94650011241FBE4F
:10009000CFEFD0E4DEBFCDBF11E0A0E0B1E0E4E0FF
:1000A000F2E000E00BBF02C007900D92AE30B10746
:1000B000D9F721E0AEE0B1E001C01D92A231B20754
:1000C000E1F70E94EB000C9400010C940000CF9328
:1000D000C82F8A3019F48DE00E9467008091C0001B
:1000E00085FFFCCFC093C60080E090E0CF910895DB
:1000F00080911001909111018130910571F030F0E3
:1001000082309105E1F0039761F13CC081E090E01D
:10011000909311018093100135C080910E018823C6
:1001200039F082E090E090931101809310012AC091
:1001300081E090E0909311018093100123C08091A1
:100140000E01882339F083E090E0909311018093B1
:10015000100118C081E090E090931101809310018C
:1001600011C080910E01882339F083E090E09093D4
:1001700011018093100106C081E090E0909311017D
:1001800080931001809110019091110182309105AE
:1001900039F08330910551F0892BE1F415B80895B9
:1001A00080910F018F5F80930F01089580910F015F
:1001B000813019F488E085B90895823019F482E11C
:1001C00085B90895833019F485E285B9089581E0F1
:1001D00080930F01089511B88FEF82B984B915B8D3
:1001E00015B8109211011092100110920F0190B1E8
:1001F00081E08927817080930E010E947800F7CFFB
:04020000F894FFCFA0
:0E020400000000020000000067000000000083
:00000001FF
