:100000000C9446000C945D000C945D000C945D0013
:100010000C945D000C945D000C945D000C945D00EC
:100020000C945D000C945D000C945D000C945D00DC
:100030000C945D000C945D000C945D000C945D00CC
:100040000C945D000C945D000C945D000C945D00BC
:100050000C945D000C945D000C945D000C945D00AC
:100060000C945D000C945D000C945D000C945D009C
:100070000C945D000C945D000C945D000C945D008C
:100080000C945D000C945D000C945D0011241FBE67
:10009000CFEFD0E4DEBFCDBF11E0A0E0B1E0EAE0F9
:1000A000F2E000E00BBF02C007900D92AE30B10746
:1000B000D9F70E9470000C9403010C940000CF93B8
:1000C000C82F8A3019F48DE00E945F008091C00033
:1000D00085FFFCCFC093C60080E090E0CF910895EB
:1000E00011B88FEF82B987B918B850B180B1809537
:1000F000827090B19095947040B140954870252FD2
:10010000217030E050FD02C0882329F0211531050F
:1001100039F0882329F0911103C0442309F45CC00D
:100120002115310521F4882311F0992339F0211587
:10013000310539F0811105C0992319F0442309F4E0
:100140004DC02115310511F4882329F02115310501
:1001500039F0882329F0992319F0442309F440C089
:100160002115310531F4882321F0992311F044231E
:10017000C9F12115310531F0811104C0911102C07E
:10018000411132C02115310531F4811104C09111A2
:1001900002C041112BC0882311F0992339F0211599
:1001A000310531F0811104C0992311F0411120C0B3
:1001B0002115310511F4882349F02115310511F07D
:1001C000811104C0232BB1F48823B1F09923B1F03D
:1001D000411116C080E415C080E613C080E711C04D
:1001E00088E30FC08CE30DC08CE30BC08CE309C027
:1001F0008EE307C080E405C080E403C080E401C052
:0A0200008FE388B972CFF894FFCFA6
:0E020A0000000002000000005F000000000085
:00000001FF
