:100000000C9446000C9465000C9465000C946500FB
:100010000C9465000C9465000C9465000C946500CC
:100020000C9465000C9465000C9465000C946500BC
:100030000C9465000C941C010C9465000C946500F4
:100040000C9465000C9465000C9465000C9465009C
:100050000C9465000C9465000C9465000C9465008C
:100060000C9465000C9465000C9465000C9465007C
:100070000C9465000C9465000C9465000C9465006C
:100080000C9465000C9465000C94650011241FBE4F
:10009000CFEFD0E4DEBFCDBF11E0A0E0B1E0E8EBF0
:1000A000F4E000E00BBF02C007900D92A231B1074F
:1000B000D9F721E0A2E1B1E001C01D92AC31B20755
:1000C000E1F70E9431020C945A020C94000040E0C7
:1000D00050E00CC000002F5F3F4F02C020E030E036
:1000E000273063E03607B4F34F5F5F4F4817590777
:1000F000ACF308959BB19F7B9BB988B98BB18068A5
:100100008BB900008BB18F778BB982E090E00E94B1
:100110006700089581E00E947A000895813120F4FB
:1001200081580E947A00089581550E947A000895AE
:1001300084E690E00E94670088E30E947A0086E0EF
:100140000E947A008FE00E947A0081E00E947A008B
:100150008AE090E00E94670008959BB190649BB98B
:1001600088B98BB180688BB900008BB18F778BB960
:1001700081E090E00E9467000895EF92FF920F9354
:100180001F93CF93DF93182FEB010E948A000EC0BC
:1001900001E0010F812F0E948E007E018FEFE81A8F
:1001A000F80A88810E94AD00102FE7018881811133
:1001B000EFCFDF91CF911F910F91FF90EF900895B6
:1001C000CF93C82F8A3019F48DE00E94E00080910F
:1001D000C00085FFFCCFC093C60080E090E0CF91C7
:1001E00008958BE0809381008DE790E090938900E3
:1001F0008093880082E080936F00109285001092B7
:1002000084008091000190910101A0910201B091C0
:1002100003018093150190931601A0931701B093E9
:1002200018018FB780688FBF0895109281000895DC
:1002300081E08093190108951F920F920FB60F92DB
:1002400011240BB60F922F933F934F935F936F93AD
:100250007F938F939F93AF93BF93EF93FF9380917F
:10026000150190911601A0911701B0911801019705
:10027000A109B1098093150190931601A09317016C
:10028000B0931801892B8A2B8B2B91F40E941801B3
:100290008091000190910101A0910201B0910301B0
:1002A0008093150190931601A0931701B093180144
:1002B000FF91EF91BF91AF919F918F917F916F913E
:1002C0005F914F913F912F910F900BBE0F900FBEFA
:1002D0000F901F9018956093000170930101809317
:1002E00002019093030160931501709316018093AE
:1002F000170190931801089580911A0190911B01A4
:100300008130910579F038F082309105A1F10497A0
:1003100009F45AC06EC081E090E090931B01809375
:100320001A0167C080911401882321F09091130174
:10033000992331F081110BC090911301992339F069
:1003400082E090E090931B0180931A0152C08823B1
:1003500059F080911301882339F084E090E0909364
:100360001B0180931A0145C081E090E090931B012E
:1003700080931A013EC080911401882321F090914E
:100380001301992331F081110BC09091130199232E
:1003900039F082E090E090931B0180931A0129C00C
:1003A000882359F080911301882339F084E090E08C
:1003B00090931B0180931A011CC081E090E0909300
:1003C0001B0180931A0115C080911401882321F02C
:1003D00080911301811107C081E090E090931B018F
:1003E00080931A0106C084E090E090931B018093F3
:1003F0001A0180911A0190911B018230910519F028
:10040000049739F1089580911401882379F080913F
:100410001201893058F48F5F809312010E948A0084
:1004200080911201805D0E94AD00089580911301BA
:100430008823B1F080911201882391F0815080933C
:1004400012010E948A0080911201805D0E94AD001D
:100450000895109212010E948A0080E30E94AD006C
:10046000089511B88FEF82B987B918B88AB91BB847
:1004700010921B0110921A0168EE73E080E090E088
:100480000E946B010E94F1000E94980090B181E0EF
:10049000892781708093140180B180958270809348
:1004A00013010E947C01809119018823E1F31092CD
:0804B0001901ECCFF894FFCF15
:1004B800010000000000000200000000E000000051
:0204C800000032
:00000001FF
