:100000000C9446000C9465000C9465000C946500FB
:100010000C9465000C9465000C9465000C946500CC
:100020000C9465000C9465000C9465000C946500BC
:100030000C9465000C94B4000C9465000C9465005D
:100040000C9465000C9465000C9465000C9465009C
:100050000C9465000C9465000C9465000C9465008C
:100060000C9465000C9465000C9465000C9465007C
:100070000C9465000C9465000C9465000C9465006C
:100080000C9465000C9465000C94650011241FBE4F
:10009000CFEFD0E4DEBFCDBF11E0A0E0B1E0E2EEF3
:1000A000F5E000E00BBF02C007900D92A231B1074E
:1000B000D9F721E0A2E1B1E001C01D92AD32B20753
:1000C000E1F70E9487020C94EF020C940000CF939A
:1000D000C82F8A3019F48DE00E9467008091C0001B
:1000E00085FFFCCFC093C60080E090E0CF910895DB
:1000F00060930001709301018093020190930301CA
:100100006093160170931701809318019093190161
:1001100008958BE0809381008DE790E090938900B3
:100120008093880082E080936F0010928500109287
:1001300084008091000190910101A0910201B09191
:1001400003018093160190931701A0931801B093B7
:1001500019018FB780688FBF0895109281000895AC
:1001600081E080931A0108951F920F920FB60F92AB
:1001700011240BB60F922F933F934F935F936F937E
:100180007F938F939F93AF93BF93EF93FF93809150
:10019000160190911701A0911801B09119010197D2
:1001A000A109B1098093160190931701A09318013A
:1001B000B0931901892B8A2B8B2B91F40E94B000EC
:1001C0008091000190910101A0910201B091030181
:1001D0008093160190931701A0931801B093190111
:1001E000FF91EF91BF91AF919F918F917F916F910F
:1001F0005F914F913F912F910F900BBE0F900FBECB
:100200000F901F90189580912101909122018130CB
:10021000910559F018F0029779F015C081E090E04F
:10022000909322018093210112C082E090E090938C
:100230002201809321010BC081E090E09093220184
:100240008093210104C0109222011092210180911B
:100250002101909122018130910519F0029729F036
:10026000089581E080931501089510921501089575
:1002700080912701909128018130910561F138F03A
:100280008230910559F0039709F455C083C082E08C
:1002900090E0909328018093270180C090912301E2
:1002A00080912C01892B90911F01892B9091200125
:1002B000892B90911D01892B39F081E090E090937A
:1002C0002801809327016AC082E090E09093280182
:1002D0008093270163C091E080912301811190E018
:1002E00081E020912C01211180E0292F282391E029
:1002F00080911F01811190E081E030912001311146
:1003000080E031E040911D01411130E092238923CA
:1003100059F0332349F01092140183E090E0909358
:100320002801809327013AC081E090E09093280152
:100330008093270133C0809114018A3049F41092D0
:10034000140182E090E0909328018093270126C059
:100350009091230180912C01892B90911F01892B71
:1003600090911D01892B90912401892B90912B0153
:10037000892B49F01092140181E090E090932801BC
:10038000809327010BC083E090E090932801809335
:10039000270104C0109228011092270180912701A3
:1003A000909128018230910531F08330910551F010
:1003B000019781F403C010921301089581E08093A6
:1003C0001301089581E080931301809114018F5FE0
:1003D0008093140108958091290190912A01813020
:1003E000910541F118F0029741F051C082E090E090
:1003F00090932A01809329014AC090912301809112
:100400002C01892B90911F01892B90912001892B20
:1004100090911D01892B39F081E090E090932A01A1
:100420008093290134C082E090E090932A01809368
:1004300029012DC091E080912301811190E081E09C
:1004400020912C01211180E0292F282391E0809117
:100450001F01811190E081E030912001311180E095
:1004600031E040911D01411130E09223892349F090
:10047000332339F082E090E090932A0180932901A0
:1004800006C081E090E090932A0180932901809139
:10049000290190912A018130910529F0029701F5F7
:1004A0001092120108959091230180912C01880FE0
:1004B000880F880F20E1929F800D112490911F01D9
:1004C000990F990F890F90912001990F890F9091A1
:1004D0001D01890F90911201981710F48093120159
:1004E00008958091250190912601892B21F0109289
:1004F000260110922501089580911B0190911C0105
:10050000892B21F010921C0110921B01089511B843
:100510008FEF82B984B915B864E670E080E090E0AE
:100520000E9478000E9489001092220110922101FD
:10053000109228011092270110922A01109229018D
:10054000109226011092250110921C0110921B019D
:1005500090B181E08927817080931E0180B18095E0
:10056000827080932B0180B18095847080932401E8
:1005700080B18095887080931D0180B180958071D5
:100580008093200180B18095807280931F0180B19B
:100590008095807480932C0180B1809580788093C1
:1005A000230180911301880F90911501890F90917B
:1005B0001201990F990F990F890F85B90E940301B4
:1005C0000E9438010E94EB010E9471020E947C028D
:1005D00080911A018823E1F310921A01B9CFF8949F
:0205E000FFCF4B
:1005E200010000000000000200000000670000009F
:0205F200000007
:00000001FF
